{
  "contractName": "Nothing",
  "abi": [
    {
      "constant": false,
      "inputs": [],
      "name": "nothing",
      "outputs": [],
      "payable": false,
      "stateMutability": "nonpayable",
      "type": "function"
    }
  ],
  "bytecode": "0x6080604052348015600f57600080fd5b50606c80601d6000396000f3fe6080604052348015600f57600080fd5b506004361060285760003560e01c8063448f30a314602d575b600080fd5b60336035565b005b56fea265627a7a723158206219358bc511bd09cf8d3c7d5550884de0dd0853e51bae69689a51d870ae908c64736f6c63430005100032",
  "source": "pragma solidity >=0.4.0 <0.7.0;\n\ncontract Nothing {\n    function nothing() public {}\n}\n",
  "sourcePath": "/home/cezhang/cole/eth-execution-engine/contracts/contracts/donothing.sol",
  "compiler": {
    "name": "solc",
    "version": "0.5.16+commit.9c3226ce.Emscripten.clang"
  },
  "schemaVersion": "3.4.7",
  "updatedAt": "2023-03-15T14:43:34.419Z",
  "devdoc": {
    "methods": {}
  },
  "userdoc": {
    "methods": {}
  }
}