{
  "contractName": "Sorter",
  "abi": [
    {
      "constant": false,
      "inputs": [
        {
          "internalType": "uint256",
          "name": "size",
          "type": "uint256"
        }
      ],
      "name": "sort",
      "outputs": [],
      "payable": false,
      "stateMutability": "nonpayable",
      "type": "function"
    }
  ],
  "bytecode": "0x608060405234801561001057600080fd5b5061021b806100206000396000f3fe608060405234801561001057600080fd5b506004361061002b5760003560e01c8063fe91386514610030575b600080fd5b61004d6004803603602081101561004657600080fd5b503561004f565b005b60608160405190808252806020026020018201604052801561007b578160200160208202803883390190505b50905060005b81518110156100ac5780830382828151811061009957fe5b6020908102919091010152600101610081565b506100bd81600060018451036100c1565b5050565b8181808214156100d25750506101e1565b6000856002868603048601815181106100e757fe5b602002602001015190505b8183116101b7575b8086848151811061010757fe5b60200260200101511015610120576001909201916100fa565b85828151811061012c57fe5b60200260200101518110156101475760001990910190610120565b8183116101b25785828151811061015a57fe5b602002602001015186848151811061016e57fe5b602002602001015187858151811061018257fe5b6020026020010188858151811061019557fe5b602090810291909101019190915252600190920191600019909101905b6100f2565b818510156101ca576101ca8686846100c1565b838310156101dd576101dd8684866100c1565b5050505b50505056fea265627a7a72315820aadf299716c24dcbbfe6938aa27ae5a9db9e89e6bc74fbe11d66c63d6d8d357b64736f6c63430005100032",
  "source": "pragma solidity >=0.4.0 <0.7.0;\n\ncontract Sorter {\n    function sort(uint256 size) public {\n        uint256[] memory data = new uint256[](size);\n        for (uint256 x = 0; x < data.length; x++) {\n            data[x] = size - x;\n        }\n        quickSort(data, 0, data.length - 1);\n    }\n\n    function quickSort(\n        uint256[] memory arr,\n        uint256 left,\n        uint256 right\n    ) internal {\n        uint256 i = left;\n        uint256 j = right;\n        if (i == j) return;\n        uint256 pivot = arr[left + (right - left) / 2];\n        while (i <= j) {\n            while (arr[i] < pivot) i++;\n            while (pivot < arr[j]) j--;\n            if (i <= j) {\n                (arr[i], arr[j]) = (arr[j], arr[i]);\n                i++;\n                j--;\n            }\n        }\n        if (left < j) quickSort(arr, left, j);\n        if (i < right) quickSort(arr, i, right);\n    }\n}\n",
  "sourcePath": "/home/cezhang/cole/eth-execution-engine/contracts/contracts/cpuheavy.sol",
  "compiler": {
    "name": "solc",
    "version": "0.5.16+commit.9c3226ce.Emscripten.clang"
  },
  "schemaVersion": "3.4.7",
  "updatedAt": "2023-03-15T14:43:34.417Z",
  "devdoc": {
    "methods": {}
  },
  "userdoc": {
    "methods": {}
  }
}