{
  "contractName": "Transfer",
  "abi": [
    {
      "constant": false,
      "inputs": [
        {
          "internalType": "string",
          "name": "arg0",
          "type": "string"
        },
        {
          "internalType": "uint256",
          "name": "arg1",
          "type": "uint256"
        }
      ],
      "name": "deposit",
      "outputs": [],
      "payable": false,
      "stateMutability": "nonpayable",
      "type": "function"
    },
    {
      "constant": false,
      "inputs": [
        {
          "internalType": "string",
          "name": "arg0",
          "type": "string"
        },
        {
          "internalType": "string",
          "name": "arg1",
          "type": "string"
        },
        {
          "internalType": "uint256",
          "name": "arg2",
          "type": "uint256"
        }
      ],
      "name": "transfer",
      "outputs": [],
      "payable": false,
      "stateMutability": "nonpayable",
      "type": "function"
    },
    {
      "constant": true,
      "inputs": [
        {
          "internalType": "string",
          "name": "arg0",
          "type": "string"
        }
      ],
      "name": "get_balance",
      "outputs": [
        {
          "internalType": "uint256",
          "name": "balance",
          "type": "uint256"
        }
      ],
      "payable": false,
      "stateMutability": "view",
      "type": "function"
    }
  ],
  "bytecode": "0x608060405234801561001057600080fd5b50610575806100206000396000f3fe608060405234801561001057600080fd5b50600436106100415760003560e01c806365a9b4a0146100465780638e27d719146100fc5780639b80b050146101a4575b600080fd5b6100ea6004803603602081101561005c57600080fd5b810190602081018135600160201b81111561007657600080fd5b82018360208201111561008857600080fd5b803590602001918460018302840111600160201b831117156100a957600080fd5b91908080601f0160208091040260200160405190810160405280939291908181526020018383808284376000920191909152509295506102cf945050505050565b60408051918252519081900360200190f35b6101a26004803603604081101561011257600080fd5b810190602081018135600160201b81111561012c57600080fd5b82018360208201111561013e57600080fd5b803590602001918460018302840111600160201b8311171561015f57600080fd5b91908080601f0160208091040260200160405190810160405280939291908181526020018383808284376000920191909152509295505091359250610336915050565b005b6101a2600480360360608110156101ba57600080fd5b810190602081018135600160201b8111156101d457600080fd5b8201836020820111156101e657600080fd5b803590602001918460018302840111600160201b8311171561020757600080fd5b91908080601f0160208091040260200160405190810160405280939291908181526020018383808284376000920191909152509295949360208101935035915050600160201b81111561025957600080fd5b82018360208201111561026b57600080fd5b803590602001918460018302840111600160201b8311171561028c57600080fd5b91908080601f016020809104026020016040519081016040528093929190818152602001838380828437600092019190915250929550509135925061039e915050565b600080826040518082805190602001908083835b602083106103025780518252601f1990920191602091820191016102e3565b51815160209384036101000a6000190180199092169116179052920194855250604051938490030190922054949350505050565b806000836040518082805190602001908083835b602083106103695780518252601f19909201916020918201910161034a565b51815160209384036101000a600019018019909216911617905292019485525060405193849003019092209290925550505050565b600080846040518082805190602001908083835b602083106103d15780518252601f1990920191602091820191016103b2565b51815160209384036101000a60001901801990921691161790529201948552506040519384900381018420548751909550600094859450889350918291908401908083835b602083106104355780518252601f199092019160209182019101610416565b51815160209384036101000a60001901801990921691161790529201948552506040519384900381018420548951968890039690880195508794879450600093508a92909182918401908083835b602083106104a25780518252601f199092019160209182019101610483565b51815160209384036101000a6000190180199092169116179052920194855250604051938490038101842094909455505086518492600092899290918291908401908083835b602083106105075780518252601f1990920191602091820191016104e8565b51815160209384036101000a6000190180199092169116179052920194855250604051938490030190922092909255505050505050505056fea265627a7a723158201b3126d3fceea90cbf91c1968732229b8b771ad5be174a5ce3be678cc7630ef164736f6c63430005100032",
  "source": "pragma solidity >=0.4.0 <0.7.0;\n\ncontract Transfer {\n    mapping(string => uint256) account;\n\n    function deposit(string memory arg0, uint256 arg1) public {\n        account[arg0] = arg1;\n    }\n\n    function transfer(string memory arg0, string memory arg1, uint256 arg2) public {\n        uint256 bal1 = account[arg0];\n        uint256 bal2 = account[arg1];\n        uint256 ammount = arg2;\n\n        bal1 -= ammount;\n        bal2 += ammount;\n\n        account[arg0] = bal1;\n        account[arg1] = bal2;\n    }\n\n    function get_balance(string memory arg0) public view returns (uint256 balance) {\n        balance = account[arg0];\n        return balance;\n    }\n}",
  "sourcePath": "/home/cezhang/cole/eth-execution-engine/contracts/contracts/transfer.sol",
  "compiler": {
    "name": "solc",
    "version": "0.5.16+commit.9c3226ce.Emscripten.clang"
  },
  "schemaVersion": "3.4.7",
  "updatedAt": "2023-03-15T14:43:34.428Z",
  "devdoc": {
    "methods": {}
  },
  "userdoc": {
    "methods": {}
  }
}